:020000040800F2
:10000000A809002005010008E3150008E712000810
:10001000E115000811030008831800080000000023
:10002000000000000000000000000000E7150008CC
:100030001303000800000000E5150008E91500089A
:100040001F0100081F0100081F0100081F01000810
:100050001F0100081F0100081F0100081F01000800
:100060001F0100081F0100081F0100081F010008F0
:100070001F0100081F0100081F0100081F010008E0
:100080001F0100081F0100081F0100081F010008D0
:100090001F0100081F0100081F0100081F010008C0
:1000A0001F0100081F0100081F0100081F010008B0
:1000B0001F0100081F0100081F0100081F010008A0
:1000C0001F0100081F0100081F0100081F01000890
:1000D0001F0100081F0100081F0100081F01000880
:1000E0001F0100081F0100081F010008DFF810D0E1
:1000F00000F0FCF8004800474D1C0008AFF30080FA
:10010000A80900200648804706480047FEE7FEE7AA
:10011000FEE7FEE7FEE7FEE7FEE7FEE7FEE7FEE7B7
:100120004B160008ED000008202A04DB203A21FAD3
:1001300002F00021704721FA02F3D040C2F1200200
:100140009140084319467047D2B201E000F8012BF4
:10015000491EFBD270470022F6E710B513460A4647
:1001600004461946FFF7F0FF204610BD80EA010261
:1001700010B502F00043400022D04A001FD0010E0B
:1001800001EB1261C0F35600C2F3560240F40000C6
:1001900042F40002A0FB022000047F39140400D0C6
:1001A000401C50EA124001D44000491EC2B20C0665
:1001B00004EBD010401C4008802A02D003E000204D
:1001C00010BD20F00100002900DA0020184310BD06
:1001D00030B480EA010202F0004530F0004221F024
:1001E000004013D090B1C30DD40DC2F31601C0F37B
:1001F0001600E41A41F4000140F400027D349142FB
:1002000001D3641C00E04900002C02DA30BC00205D
:1002100070474FF400000023914201D3891A034331
:1002200040084FEA4101F7D151B1914202D14FF05C
:10023000004105E002D24FF0010101E06FF0010141
:1002400003EBC450284430BC00F019B896230022B8
:10025000114600F01DB820F00040C10DC0F316009B
:1002600040F400007F2901DA00207047962903DC62
:10027000C1F19601C84070479639884070470029FF
:10028000A8BF7047401C490008BF20F0010070471C
:1002900010B4B0FA80FC00FA0CF050EA010404BF7C
:1002A00010BC704749B1CCF1200421FA04F411FAD2
:1002B0000CF118BF012121430843A3EB0C01CB1D16
:1002C0004FEA00614FEA102042BF002010BC704787
:1002D00000EBC35010440029A4BF10BC7047401C61
:1002E000490008BF20F0010010BC7047064C074DC4
:1002F00006E0E06840F0010394E8070098471034F6
:10030000AC42F6D3FFF7F6FE0423000824230008CE
:10031000FEE7704706490020C8610648016941F0C0
:1003200004010161016941F0400101617047000071
:100330008805002000200240064A0021D1610649BC
:100340000A6942F002020A614861086940F040000F
:10035000086170478805002000200240044B0022FD
:10036000DA61044A136943F00103136101807047A5
:10037000880500200020024014480022C168CB06F6
:10038000134904D5CA6942F00202CA611022C36847
:100390005B0705D5CB6943F00103CB6142F0040252
:1003A000C369DB0707D0CB6943F00403CB61C169A4
:1003B00021F00101C161A2F58071013901D0C26053
:1003C0007047C16921F00101C161704700200240FE
:1003D0008805002070B5054600F0E4F90646114C8A
:1003E00009E0681C07D025B100F0DCF9801BA842A9
:1003F00001D9032070BDE068C007F2D1E068800633
:1004000001D52020E060E068C00605D4E069C0079F
:1004100002D1E068400703D5FFF7AEFF012070BDB1
:10042000002070BD0020024070B5044600F0BAF90B
:100430000546601C02D004480078044400F0B2F97C
:10044000401BA042FAD370BD3C0000202DE9F047CC
:10045000054626480F460126017E01290FD00121BD
:10046000814601762868DFF888804CF250340228F3
:1004700008D0A2462046FFF7ADFFA8B131E0022028
:10048000BDE8F0872046FFF7A5FF08BB0120FFF776
:1004900041FF2046FFF79EFFD8F81010064621F0D6
:1004A0000401C8F810101CE04FF0FF303860AC6851
:1004B00011E02046FFF740FF5046FFF78BFFD8F8CA
:1004C0001010060021F00201C8F8101001D03C60A5
:1004D00007E004F58064D5E9020100EB8120A04229
:1004E000E7D8002189F818103046C9E788050020B0
:1004F000002002400348016941F0800101610020B1
:1005000070470000002002402DE9F05F07461C48BC
:1005100088460024017E15461E46012909D0012186
:10052000814601764CF2503A5046FFF753FF18B11E
:1005300022E00220BDE8F09F012F02D0022F00D060
:100540000427D346DFF83CA0220128463146FFF7B6
:10055000EBFD81B208EB4400FFF700FF5846FFF7C0
:1005600039FFDAF8102022F00102CAF8102018B979
:10057000641CE4B2BC42E7D3002289F81820D9E712
:100580008805002000200240064900200A69120662
:1005900007D5054A4A60054A4A600969090600D537
:1005A000012070470020024023016745AB89EFCD51
:1005B0002DE9F84FDFF8B891002409F1040A0AF197
:1005C000040B23460F270BF1040EC9E00125A540BB
:1005D0002A40AA427DD1674ED1F804C0ACEB060890
:1005E000B44532D014DCBCF1030F3AD009DCBCF1C5
:1005F000000F2AD0BCF1010F1CD0BCF1020F31D189
:100600001DE0BCF1110F17D0BCF1120F2AD119E077
:10061000B8F5881F19D006DCB8F5803F15D0B8F5BD
:10062000801F1FD111E0B8F5001F0ED0B8F5041FD0
:1006300018D10AE0CB6815E0CB681B1D12E0CB682F
:1006400008330FE0CB680C330CE08B682BB1012B27
:100650004FF0080303D0456104E0042302E0056184
:1006600000E00023FF2A01D8064601E000F104065D
:100670004FEA840501D9A5F12005D6F8008007FAD4
:1006800005FC28EA0C0803FA05F548EA0508C6F84F
:1006900000804D68ED0062D5374DAE6946F0010629
:1006A000AE61AD6924F0030605F001050095334DF8
:1006B00006EB050CDCF80850A607360F07FA06F81B
:1006C00025EA0805DFF8B880404503D14FF000085F
:1006D00017E044E0DFF8AC80404502D14FF001085C
:1006E0000FE0DFF8A480404502D14FF0020808E097
:1006F000DFF89880404502D14FF0030801E04FF049
:10070000040808FA06F848EA0508CCF808804D689D
:10071000D9F80060ED034D4601D5164300E096433D
:100720002E604D68DAF80060AD03554601D51643DA
:1007300000E096432E604D68DBF80060ED025D46F8
:1007400001D5164300E096432E604D68DEF8006048
:10075000AD02754601D5164300E096432E60641C39
:100760000D682A46E5407FF431AFBDE8F88F000000
:100770000004014000001110001002400000014080
:1007800000080140000C014000100140001401402D
:100790008068084000D0012070470AB101617047AD
:1007A0000904FBE701488068704700003C00002016
:1007B0000248816802781144816070473C00002043
:1007C000074810B5016841F010010160032000F0F6
:1007D00067F8002000F006F800F024F8002010BDB3
:1007E0000020024070B50D4D04464FF47A71287810
:1007F000B1FBF0F00A490968B1FBF0F000F0BEFA75
:1008000048B9102C07D200222146501E00F028F8CB
:1008100000206C6070BD012070BD00003C00002015
:10082000480000200C4808B5816941F00101816150
:10083000816901F001010091C16941F08051C161FC
:10084000C06900F0805000900448416821F0E061E8
:1008500041F00071416008BD0010024000000140FD
:10086000F0B40E4B1B680C46C3F30223C3F107051B
:10087000042D00D90425191D072901D2002300E009
:10088000DB1E012606FA05F1491E214099409E40D3
:10089000761E16403143F0BC00F0F4BF0CED00E0D2
:1008A000064900F0070208684FF6FF03184040EAC7
:1008B0000220034A10430860704700000CED00E07E
:1008C0000000FA052DE9F0470F46050061D0434EC0
:1008D000306800F00700B84209D2306820F0070005
:1008E00038433060306800F00700B84251D12868C2
:1008F0003B4C810712D5400703D5606840F4E060A7
:1009000060602878000703D5606840F4605060603C
:100910006068A96820F0F000084360602878C0078C
:1009200028D06868012810D02168022810D08907D3
:1009300000292EDA616821F0030101436160FFF7AD
:1009400031FF804641F288390DE021688903EFE7E5
:100950008901EDE7FFF726FFA0EB0801494502D921
:100960000320BDE8F0876068696800F00C00B0EB18
:10097000810FEFD1306800F00700B8420BD9306822
:1009800020F0070038433060306800F00700B842BC
:1009900001D00120E5E72878400705D56068E968BF
:1009A00020F4E060084360602878000706D560689E
:1009B000296920F4605040EAC100606000F018F836
:1009C0006168084AC1F30311515CC84006490860D8
:1009D00006480068FFF706FF0020C2E7002002403B
:1009E00000100240F42200084800002040000020CF
:1009F00012A185B00FC98DE80F0014A0144A006839
:100A000004905168134801F00C03042B10D0082BFC
:100A10000ED1C1F38343C9031DF803000AD5516801
:100A200004AAC1F34041515C0A4A5043B0FBF1F0C3
:100A300005B0704708494843FAE70000020304057F
:100A4000060708090A0B0C0D0E0F1010010200001A
:100A50000010024000127A0000093D002DE9F84F15
:100A6000040070D02078C04DC00749D06868C0F33A
:100A70008100012807D06868C0F38100022809D1ED
:100A80006868C00306D52868800339D560680028E7
:100A9000E7D035E06068B0F5803F0BD010B1B0F51D
:100AA000A02F11D0286820F480302860286820F416
:100AB000802002E0286840F480302860606890B1AF
:100AC000FFF770FE06460AE0286840F480202860A0
:100AD000F0E700BFFFF766FE801B642873D8286824
:100AE0008003F7D50CE0FFF75DFE064605E000BF8A
:100AF000FFF758FE801B6428F0D828688003F7D4DD
:100B000020789A4E80074FF001094FF0000839D540
:100B1000686810F00C0F07D06868C0F381000228E5
:100B200009D16868C00306D42868800714D52069F5
:100B3000012808D110E02069B0B1C6F80090FFF795
:100B400031FE074605E00AE1FFF72CFEC01B022834
:100B5000C4D828688007F7D52868616920F0F800B4
:100B600040EAC10028600DE0C6F80080FFF71AFED9
:100B7000074604E0FFF716FEC01B022823D82868AA
:100B80008007F7D4207800072CD57948A169D9B11E
:100B9000C0F80090FFF706FE074604E0FFF702FEEC
:100BA000C01B02280FD8686A8007F7D571484FF438
:100BB000FA510068B0FBF1F0009000BF0098411EB0
:100BC0000091FAD20EE080E0C0F80080FFF7EAFD65
:100BD000074604E0FFF7E6FDC01B022875D8686AE7
:100BE0008007F7D42078400760D5E8690027C00067
:100BF00008D4E86940F08050E861E869012700F016
:100C0000805000905C480168C90513D40168834690
:100C100041F480710160FFF7C5FD824606E000BF28
:100C2000FFF7C0FDA0EB0A0064284ED8DBF80000F7
:100C3000C005F5D5E06801280AD008B1052813D011
:100C4000286A20F001002862286A20F0040002E0EF
:100C5000286A40F001002862E06841F2883B98B1C0
:100C6000FFF7A0FD82460BE0286A40F004002862EE
:100C7000EEE700BFFFF796FDA0EB0A0159455AD8F1
:100C8000286A8007F6D50CE0FFF78CFD824605E068
:100C9000FFF788FDA0EB0A0159454CD8286A800768
:100CA000F6D41FB1E86920F08050E861E06988B3AC
:100CB0006968C1F38101022944D00228C6F8608026
:100CC00004D0FFF76FFD044638E034E0FFF76AFD1B
:100CD000074604E0FFF766FDC01B02282BD82868F2
:100CE0008001F7D4206AB0F5803F05D16868A1681B
:100CF00020F4003008436860D4E9080108436968BB
:100D000021F4741108436860C6F86090FFF74AFD4B
:100D1000044606E025E000BFFFF744FD001B022863
:100D200009D828688001F7D51BE000BFFFF73AFD1E
:100D3000001B022802D90320BDE8F88F2868800133
:100D4000F4D40EE00128F7D06868226A00F48031FC
:100D5000914204D1616A00F47010884201D00120F0
:100D6000EAE70020E8E700000010024000004242ED
:100D700080044242480000200070004010B5401E30
:100D8000B0F1807F01D3012010BD4FF0E0246061FD
:100D90000F21601700F076FD0020A0610720206180
:100DA000002010BD70B590F83C20012A26D0012407
:100DB00080F83C40022280F83D2003685A689D6814
:100DC00022F070060A6832435A600D4B02689A425C
:100DD00008D0B2F1804F05D00A4B9A4202D00A4B9C
:100DE0009A4204D1496825F080031943916080F844
:100DF0003D40002180F83C10084670BD022070BDC7
:100E0000002C0140000400400008004010B5040020
:100E100003D094F83D0010B107E0012010BD002080
:100E200084F83C00204600F01FF8022084F83D00C2
:100E3000211D206800F00AFC012084F8460084F897
:100E40003E0084F83F0084F8400084F8410084F8B4
:100E5000420084F8430084F8440084F8450084F894
:100E60003D00002010BD000008B501681148B1F137
:100E7000804F0BD0104A914210D1C16941F002015C
:100E8000C161C06900F00200009008BDC16941F075
:100E90000101C161C06900F00100F5E7074A914214
:100EA000F3D1C16941F00401C161C06900F00400DF
:100EB000EAE7000000100240000400400008004083
:100EC00070B5044690F83C00012817D0012584F83D
:100ED0003C50022084F83D002068826822F07702AE
:100EE00022F47F4282600868502830D00DDC202830
:100EF0004DD005DC98B310283BD148E0022070BDEE
:100F0000302844D0402834D139E0602828D07028D7
:100F100006D0B0F5805F2CD0B0F5005F29D10AE093
:100F2000CB68D1E90121206800F0D3FB20688168FB
:100F300041F0770109E0CB68D1E90121206800F098
:100F4000C8FB2068816841F48041816011E0CA6873
:100F50004968206800F072FC5021206807E016E024
:100F6000CA684968206800F07AFC6021206800F0B7
:100F7000BAFB84F83D50002084F83C0070BDCA687C
:100F80004968206800F05AFC40212068EFE7226899
:100F900001461046EBE72DE9F0410D46040003D071
:100FA00094F83D0018B108E00120BDE8F081002070
:100FB00084F83C00204600F041F8022084F83D000F
:100FC0002068816844F2070291438160211D2068F6
:100FD00000F03CFB226890689169166A2B68AF6943
:100FE000034340F20330814341EA0721A868EF69D7
:100FF00008434FF6FC418843E96840EA0720014373
:1010000028692F6A000140EA0730084369686D6962
:1010100026F0220646EA051529439360226890616E
:1010200054F8460B0162012004F81F09E075207690
:10103000E0762077A0750020B7E7000000B585B006
:101040000021009101910291039100680F498842AB
:1010500019D10F48816941F400618161816901F40E
:1010600000610491816941F00401816180696946F0
:1010700000F0040004904FF44070009001200290B2
:101080000448FFF795FA05B000BD0000002C0140B0
:10109000001002400008014070B590F83E60044620
:1010A00090F83F5090F8423090F84320022021B150
:1010B00004290ED0012E1BD114E0012E18D1012BD2
:1010C00016D184F83E0084F84200012200212068F5
:1010D00020E0012D0CD1012A0AD184F83F0084F8C8
:1010E000430014E0012D03D1012B01D1012A01D0CD
:1010F000012070BD84F83E0084F83F0084F842006F
:1011000084F8430001220021206800F0D5FA012272
:101110000421206800F0D0FA2068016841F0010144
:101120000160002070BD000070B586B00021009104
:1011300001910291039103681D49022203241D4875
:10114000B3F1804F14D01C4E4025B3421ED18B69A1
:1011500043F004038B61896901F00401CDE9034187
:10116000CDE90052694600BFFFF722FA06B070BD14
:101170008B6943F004038B618969039401F00401D6
:1011800004910121CDE900126946EDE70B48834245
:10119000ECD1886940F0080088618869CDE9005287
:1011A00000F00800CDE9032069460548DCE70000AF
:1011B0000010024000080140000400400008004008
:1011C000000C014070B5044690F83C000D46012823
:1011D0000AD0012084F83C0042B1042A18D0082A21
:1011E0002AD00C2A4DD139E0022070BD206800F0D1
:1011F00083FA2068816941F0080181612068816972
:1012000021F004018161206881692A69114311E09C
:10121000206800F099FA2068816941F400618161D9
:101220002068816921F480618161206881692A696F
:1012300041EA0221816124E0206800F0B1FA2068CF
:10124000C16941F00801C1612068C16921F0040150
:10125000C1612068C1692A69114311E0206800F06A
:10126000CBFA2068C16941F40061C1612068C1699D
:1012700021F48061C1612068C1692A6941EA0221C3
:10128000C161002084F83C0070BD10B5040003D09B
:1012900094F83D0010B107E0012010BD002084F853
:1012A0003C00204600F01EF8022084F83D00211D7D
:1012B000206800F0CBF9012084F8460084F83E0055
:1012C00084F83F0084F8400084F8410084F842002C
:1012D00084F8430084F8440084F8450084F83D0015
:1012E000002010BD7047FEE72DE9F04186B00024D4
:1012F0002C480094019402940394816941F01001F8
:101300008161816901F010010491816941F020013E
:101310008161816901F020010491816941F004013A
:101320008161816901F004010491816941F0080142
:10133000816180691C4F00F008004FF40055049053
:10134000002229463846FFF728FADFF8608000229D
:1013500038214046FFF721FA009502260125039621
:10136000CDE9015469463846FFF722F94FF4E040D1
:101370008DE8310069464046FFF71AF94FF4E05016
:101380008DE8310069460A48FFF712F93820CDE9A7
:101390000005CDE9024669464046FFF709F906B067
:1013A000BDE8F0810010024000100140000C014037
:1013B0000008014010B58CB024216846FEF7CBFE32
:1013C00000241648099414490A94C0E90014FF2126
:1013D000C0E902410461446184610120CDE9000457
:1013E000CDE902040F210491CDE90540CDE9074183
:1013F00069460A48FFF7CFFD08B172B6FEE70994C7
:1014000009A906480A94FFF7CDFC002801D072B65E
:10141000FEE70CB010BD0000002C01406800002069
:1014200010B58EB000240794089409940A940B9484
:101430001C2168460C94FEF78EFE1D484FF080413B
:10144000C0E900144914C0E9024104618461FFF756
:10145000DDFC08B172B6FEE74FF48050079007A993
:101460001348FFF72DFD08B172B6FEE71048FFF7ED
:101470000CFF08B172B6FEE70B940BA90C480C9454
:10148000FFF790FC08B172B6FEE76020CDE90004DA
:10149000042004900022694602940548FFF792FE5A
:1014A00008B172B6FEE70248FFF73EFE0EB010BD6F
:1014B000B000002010B58EB0002407940894099461
:1014C0000A940B941C2168460C94FEF744FE1E48B7
:1014D0001C49C0E900144914C0E902410461846157
:1014E000FFF794FC08B172B6FEE74FF48050079006
:1014F00007A91548FFF7E4FC08B172B6FEE71248E9
:10150000FFF7C3FE08B172B6FEE70B940BA90E48B5
:101510000C94FFF747FC08B172B6FEE76020CDE9F6
:101520000004042004900022694602940648FFF754
:1015300049FE08B172B6FEE70348FFF7F5FD0EB0AD
:1015400010BD000000040040F800002010B58EB06F
:1015500000240794089409940A940B941C2168466B
:101560000C94FEF7F8FD1D481B49C0E9001449140E
:10157000C0E9024104618461FFF748FC08B172B61A
:10158000FEE74FF48050079007A91448FFF798FC36
:1015900008B172B6FEE71148FFF777FE08B172B6E0
:1015A000FEE70B940BA90D480C94FFF7FBFB08B169
:1015B00072B6FEE76020CDE900040294002269467D
:1015C00006480494FFF7FEFD08B172B6FEE7034833
:1015D000FFF7AAFD0EB010BD00080040400100203A
:1015E000FEE7FEE770477047FFF7E2B830B58FB00F
:1015F00028216846FEF7AFFD14210AA8FEF7ABFDCF
:1016000001210804CDE90010002402940225049170
:10161000CDE907504FF4E01009906846FFF71EFA35
:1016200008B172B6FEE70F20CDE90A054FF48060DD
:10163000CDE90C4002210AA80E94FFF743F90028D7
:1016400001D072B6FEE70FB030BD7047F0B502684A
:10165000164B174C174D4FF08047984205D0B842B3
:1016600003D0A04201D0A84203D122F070064A68FC
:101670003243984205D0B84203D0A04201D0A842DC
:1016800003D122F44074CA6822434C6922F08002DC
:10169000224302608A68C2620A688262984201D16B
:1016A0000969016301214161F0BD0000002C014086
:1016B000000400400008004010B501F01F030121A4
:1016C000046A99408C430462016A9A4011430162A2
:1016D00010BD10B5846842EA032224F47F440A4313
:1016E0002243826010BD826822F070020A4342F0F9
:1016F000070181607047000030B5026A22F00102E4
:101700000262026A4368846924F073050C682C4302
:1017100022F002058A682A430A4DA8420BD122F022
:101720000805CA6823F440732A434D6922F0040275
:101730001D438B692B4343608461496841630262A6
:1017400030BD0000002C014030B5026A22F01002CA
:101750000262026A436884690D6824F4E64444EA3C
:1017600005248D6822F0200242EA05120B4DA842A2
:101770000ED1CD6822F0800242EA05124D6923F4B1
:10178000406343EA85038D6922F0400243EA850302
:101790004360846149688163026230BD002C01406E
:1017A00030B5026A22F480720262036A4268C46938
:1017B00023F4007324F073050C682C438D6843EA0E
:1017C00005230C4DA8420ED1CD6823F4006343EAF3
:1017D00005234D6922F4405242EA05128D6923F433
:1017E000806342EA05124260C4614968C1630362D2
:1017F00030BD0000002C014030B5026A22F4805256
:101800000262046A4268C3690D6823F4E64343EA4E
:1018100005238D6824F4005444EA0534064DA8429B
:1018200004D14D6922F4804242EA85124260C361CC
:1018300049680164046230BD002C014010B5036AA0
:10184000046A24F001040462846924F0F00444EA88
:10185000021423F00A020A438461026210BD10B52B
:10186000036A23F0100303628369046A23F470435C
:1018700043EA023224F0A00343EA011182610162CB
:1018800010BDFEE70907090E002804DB00F1E02087
:1018900080F80014704700F00F0000F1E02080F89D
:1018A000141D704702E008C8121F08C1002AFAD1AF
:1018B00070477047002001E001C1121F002AFBD1D0
:1018C0007047000070B520B1012804D0022805D16E
:1018D00003E0102502E0202500E00825124E00223A
:1018E00020213046FEF759FF002210213046FEF736
:1018F00054FF002208213046FEF74FFF00246420E9
:10190000FEF792FD012229463046FEF746FF0A20E7
:10191000FEF78AFD002229463046FEF73EFF641C92
:10192000E4B2032CEBD370BD000C014070B51D4D2B
:10193000002220212846FEF730FF002210212846F1
:10194000FEF72BFF002208212846FEF726FF002481
:101950006420FEF769FD012208212846FEF71DFFDD
:10196000012210212846FEF718FF012220212846D7
:10197000FEF713FF0A20FEF757FD00220821284634
:10198000FEF70BFF002210212846FEF706FF00227B
:1019900020212846FEF701FF641CE4B2032CD7D3B4
:1019A00070BD0000000C014070B5040004D0012C93
:1019B00006D0022C0BD107E04FF40061CE0406E004
:1019C0004FF48051184E02E0184E4FF480611848D1
:1019D000FEF7DEFE0146204600F0B2F8154830F86A
:1019E0001400B0F57A6F17D1134D285DC0F10100D6
:1019F00010F0FF00285504D000F062FC00F0FEFB60
:101A000002E000203062F0640C4834B1012C07D0B1
:101A1000022C01D1A978417770BD2978C17670BDBB
:101A20006978017770BD00000004004000080040A4
:101A3000000801404C0000200E000020880100201A
:101A400010B54FF480410E48FEF7A2FE0146032078
:101A500000F076F80B48C088B0F57A6F0ED10A49CD
:101A600003224879801CB0FBF2F302FB130048719B
:101A700006498877BDE81040FFF724BF10BD00007D
:101A8000000C01404C0000200000002088010020D4
:101A900010B54FF400510C48FEF77AFE01460420C1
:101AA00000F04EF809480089B0F57A6F0AD108496C
:101AB00003228879401CB0FBF2F302FB130088710B
:101AC0000449C87710BD0000000C01404C00002004
:101AD000000000208801002010B54FF48051144808
:101AE000FEF756FE0146052000F02AF8114840890D
:101AF000B0F57A6F0DD110481049827952B1012AA0
:101B00000FD0022A05D18278930043EA92128270A4
:101B10008A7610BD0278930043EA921202700A7628
:101B200010BD4278930043EA921242704A7610BD8B
:101B3000000C01404C000020000000208801002023
:101B4000054A21B15FF0000122F81010704732F809
:101B50001010491CF8E700004C0000202DE9F04768
:101B6000384C40F2FF15208800B9284636490880D5
:101B7000628802B92A464A80A78890460FB940F287
:101B8000FF378F80E68806B9FF262F49891D0E8012
:101B9000228902B9FF224A809146628902B1154624
:101BA0008D802949A2890C31401C0A80E2894A8033
:101BB000228A8A80891D628A0A80A28A4A80E28AF1
:101BC0008A80FEF743FB8246701CFEF73FFB5146BE
:101BD000FEF7FEFA1C4E1836306008F10100FEF7E1
:101BE00035FB804609F10100FEF730FB4146FEF768
:101BF000EFFA7060781CFEF729FB0746681CFEF7B9
:101C000025FB3946FEF7E4FAB060207E00B90120DA
:101C10000D4918390870607E00B901204870A07E17
:101C200000B9012088700848E27E0A380270227FDD
:101C30004270627F8270A07F4871E07F8871BDE84A
:101C4000F08700008801002018000020FEF7B8FD92
:101C50005648C16941F0C051C1615548016841F41D
:101C600080710160002000F0B5F8FFF777FFFFF703
:101C7000BDFCFFF739FBFFF79DFBFFF7D1FBFFF73B
:101C800019FCFFF763FC00214A48FFF705FA4A49AF
:101C90004FF080400A88C262484B4A881A60484A1E
:101CA000898811604449891D0A884263434B4A88E8
:101CB00008331A60424A8988083211603E4912315D
:101CC0000A8882623D4A4888121F106088883C4911
:101CD000091F086000F092FA012251033948FEF70B
:101CE0005CFDFFF723FE00F0EBFA00F087FA324CC0
:101CF000354D183C354E04F10E07606930B900F0DF
:101D00009FF833486061A089401CA0816069401E33
:101D100060612868E178401AC1B22171608920B100
:101D2000401E0004000C608105D121B14FF47A609F
:101D3000608100F00BFA2868E0700020FFF734FEA5
:101D40000120FFF731FE0220FFF72EFEFFF778FE9D
:101D5000FFF79EFEFFF7C0FEE079401CC0B2E071C5
:101D6000217A884216D2387820B1012210213046DB
:101D7000FEF713FD787820B1012220213046FEF7CE
:101D80000CFDB8780028B8D0012208213046FEF7B3
:101D900004FDB2E7002220213046FEF7FEFC0022BF
:101DA00010213046FEF7F9FC0022EEE70010024059
:101DB0000070004068000020180000202C04004043
:101DC0002C08004000100140242C0140000C014070
:101DD000C0C62D0010B51649164B1748002210C971
:101DE00040F82240521C9942F9D3144B016A99429F
:101DF0001DD040F2FF110180418040F2FF3282800D
:101E0000FF22C2800281418100218181C181018242
:101E100041828182C1820122027642768276C17637
:101E2000017741778177C1770362C0F8F81310BD5D
:101E300000800008008400088801002078563412D1
:101E4000F8B51F4800271F4C01210760C0E9024177
:101E50001D4E1E4D20463946CDF8007055F8212004
:101E600003689A4202D0009A521C0092001D491C3D
:101E7000B042F3D30098002820D0FEF785FB6946D6
:101E80000F48FEF7E3FA0097D5F8F8030027401C47
:101E9000C5F8F8030520FEF7C7FA55F827200023F8
:101EA00021460220FEF730FB08B9241D7F1C0A20C2
:101EB000FEF7BAFAB442EDD3FEF71CFBF8BD000002
:101EC00058000020008000080084000888010020DD
:101ED00070B528494D7925B1012D05D0022D06D1C7
:101EE00004E04FF0804402E0234C00E0234C4978AA
:101EF000012902D0E26A4A43510A626B41F00101B2
:101F000000FB012189B200280DDD606B884203D8F7
:101F1000E06A401C88420CD2E06A401CE06A00D0B3
:101F2000401C606306E004DA606B884201D2002046
:101F3000F7E76163124825B1012D05D0022D08D1C4
:101F400005E0616BC18004E0616B018101E0616BC0
:101F50004181E06A401CFEF779F90646606B401C3F
:101F6000FEF774F93146FEF733F90249303141F892
:101F7000250070BD00000020000400400008004063
:101F8000880100202DE9F0476C4E8046DFF8B091C3
:101F900070794FF0804520B1012804D0022805D186
:101FA00003E02C4602E0674C00E04C463078012804
:101FB00002D0E16A4143480AE16A40F0010008FBAF
:101FC000001083B200F07CF901274FF400414FF676
:101FD000FF70B8F1000F14DDE26A9A4229D9A26AB3
:101FE00082420CD2E162A06A07EB4000A062606B03
:101FF000012802D9606B400815E0012013E0E0627F
:1020000018E016DA8B4210D2A16A71B1E062A06AC0
:102010004008A062E06A616BB0EB410F01D2E06A58
:1020200001E0606B4000606304E0E06A984218D30E
:10203000BBB1E362C846DFF80491444509F13009B9
:1020400001D0AC420AD1E06AFEF700F9727959F882
:102050002210FEF78BF8FEF7FEF86063606B10B19C
:1020600002E0E762E6E76763606BE16A884201D9F4
:10207000E06A6063DFF8D0A0444550D1E96A304897
:102080002C30026891420AD9E96A0068401C491C58
:10209000B1FBF0F200FB1210E96A081A00E00068D8
:1020A000E86228482C300168EA6A91420AD901683E
:1020B000EA6A491C521CB1FBF2F302FB13110268DD
:1020C000511A00E0E96A80460160E86AFEF7BEF84E
:1020D000D9F80010FEF74AF8FEF7BDF86863D8F8A3
:1020E0000000FEF7B3F8D9F80410FEF73FF8FEF74A
:1020F000B2F8144934310860686B00B96F6308683E
:1021000000B90F60EA6AAAF80020D8F80020AAF8FF
:1021100002206A6BAAF806200968AAF80810E26A89
:1021200071792AF81120626B0AEB4100C280A16A22
:102130004182BDE8F04700F061B8000000000020D7
:102140000008004000040040880100200A49087986
:10215000802801D2012001E04FF0FF30897929B1B8
:10216000012905D0022905D100F008B8FFF70ABF00
:10217000FFF7AEBE70470000000000201B4B10B5FB
:102180005A7922B1012A05D0022A06D104E04FF083
:10219000804102E0164900E016499B78012B11D0DE
:1021A000DB01124943F00103243131F8124000FBF6
:1021B000034021F81200104852B1012A0BD0022A24
:1021C0000ED10BE0C96A4FF6FF73B3FBF1F3E8E7FA
:1021D0000988818104E04988C18101E08988018200
:1021E00000F06EF8BDE8104000F008B800000020D4
:1021F000000400400008004088010020F0B52D498F
:102200004FF080400A88C36A5A434FF6FF73B2FB0F
:10221000F3F24262284C4A8824686243B2FBF3F42A
:10222000254A083A1460254C898824686143B1FB2B
:10223000F3F1224B083B19601E49204D16391F4E01
:102240008B784C789B0043EA44030978141F0B43B6
:10225000DFB2194B0121203320350C3E082F07D265
:10226000DFE807F0062404070B0E141A196021603A
:10227000F0BD426A0A32426216E029603160F0BD68
:10228000426A0A324262296031600FE010680A3007
:10229000106029603160E9E717680A371760426A01
:1022A000143242622960316019602160C1640162A8
:1022B000F0BD0000240000202C0400402C08004049
:1022C000094900200A781AB14FF080421062D064A8
:1022D0004A7812B1054A1062D0648978002902D088
:1022E00003490862C86470470E00002000040040E3
:1022F000000800400000000000000000010203048C
:102300000607080924230008000000204C000000F4
:10231000A4180008702300084C0000205C0900008D
:10232000B418000801010100000100000A000000CB
:10233000000000000000000000000000FF01FF019D
:10234000FF03FF00FF00FF0100000000000000008D
:10235000000000000000003F0000003F0000003FC0
:102360000100000010000000000000000024F40044
:04000005080000ED02
:00000001FF
